:100000000C9434000C943E000C943E000C943E0082
:100010000C943E000C943E000C943E000C943E0068
:100020000C943E000C943E000C943E000C943E0058
:100030000C943E000C943E000C943E000C943E0048
:100040000C943E000C943E000C943E000C943E0038
:100050000C943E000C943E000C943E000C943E0028
:100060000C943E000C943E0011241FBECFEFD8E04C
:10007000DEBFCDBF0E9440000C9457000C940000DE
:10008000E4E2F0E0808181608083E5E2F0E0A1E0DD
:1000900064EC79E040E951E080818A2780839B010C
:1000A000CA010197F1F721503040D1F7F5CFF8940C
:0200B000FFCF80
:00000001FF
